:020000040000FA
:0400000045EF32F0A6
:106476002AC001F02BC002F01200070E93160F0E71
:106486009512120000EE1CF01A0EEE6AE806FDE107
:10649600000EF86E000195EF34F0000E016E012A31
:1064A600180E016459EF32F05BEF32F052EF32F022
:1064B60012009494030ECA12CA840C0EBD6E000E0E
:1064C600106E640E0F6E8AEC32F01200000E026E31
:1064D60050EC32F0022A310E026474EF32F076EF9D
:1064E60032F06BEF32F0120001500302F3CF05F0E9
:1064F600F4CF06F001500402F350062602500302C0
:10650600F350062605C001F006C002F01200480E40
:10651600016EE80E026E010E036E000E046E0FC0D1
:1065260005F010C006F0076A086AA2EC35F001040F
:10653600CB6E1200076E83CF08F0000E956E000E2C
:10654600026E220E016E000E046E010E036E8FECBB
:1065560037F007C083FF000E026E210E016E000E9B
:10656600046E010E036E8FEC37F0000E026E210EE4
:10657600016E000E046E000E036E8FEC37F008C03D
:1065860083FF50EC32F01200000E026E020E016E16
:10659600000E046E000E036E04EC3BF0000E026E5D
:1065A600030E016E000E046E000E036E04EC3BF04B
:1065B600000E026E040E016E000E046E000E036ED7
:1065C60004EC3BF0000E026E050E016E000E046E2A
:1065D600000E036E04EC3BF0000E956E1200026E88
:1065E6000150D8A4F9EF32F0FBEF32F0FDEF32F0B4
:1065F60002C033F00104D8A403EF33F005EF33F003
:1066060007EF33F002C032F0020E0118D8A40EEFE5
:1066160033F010EF33F012EF33F002C031F0030E17
:106626000118D8A419EF33F01BEF33F01DEF33F048
:1066360002C030F012000A6E010ECB24016E026A0F
:10664600000E02220AC003F0046A77EC32F001C0A1
:106656000BF002C00CF00BC001F00CC002F0000EF3
:10666600046E190E036E8EEC33F001C00BF002C0FF
:106676000CF0FF0E0B16030E0C160BC008F00CC028
:1066860009F0D89009320832D890093208320850F9
:10669600BE6E0BC008F0030E08160838F00BBD12CC
:1066A6001200030E126EE80E116E80EF33F011C069
:1066B60003F012C004F00FC001F010C002F040EC6D
:1066C60035F001C009F002C00AF0000E0C6E0A0E89
:1066D6000B6EE8EC34F00950300F9DEC32F011C02F
:1066E60001F012C002F0000E046E0A0E036E40ECBA
:1066F60035F001C011F002C012F012BE8DEF33F07A
:10670600125006E11104D8B08BEF33F08DEF33F061
:106716005AEF33F01200000E066E000E056E03509F
:106726000410D8B499EF33F09BEF33F0C3EF33F096
:10673600010E076EA3EF33F0D89003360436072A0E
:1067460004AEA8EF33F0AAEF33F09FEF33F0D89002
:10675600053606360350015C04500258D8A0B6EF41
:1067660033F0B8EF33F0BDEF33F00350015E045061
:10677600025A0580D89004320332072EAAEF33F06E
:1067860005C001F006C002F01200000E026E220ED5
:10679600016E000E046E000E036E04EC3BF0000E5C
:1067A600026E210E016E000E046E000E036E04ECE6
:1067B6003BF0000E956E69EC32F069EC32F069EC54
:1067C60032F069EC32F069EC32F0380E04EC34F059
:1067D60069EC32F069EC32F0380E04EC34F069EC16
:1067E60032F0380E04EC34F0380E04EC34F0060EB9
:1067F60004EC34F00C0E04EC34F0010E04EC34F02E
:106806001200086E83CF07F0000E956E000E026E22
:10681600220E016E000E046E000E036E8FEC37F032
:1068260008C083FF000E026E210E016E000E046E7C
:10683600010E036E8FEC37F0000E026E210E016E14
:10684600000E046E000E036E8FEC37F007C083FF58
:10685600020E0818D8B432EF34F034EF34F03CEFBF
:1068660034F00804D8A43AEF34F03CEF34F040EFAB
:1068760034F069EC32F042EF34F050EC32F01200B2
:10688600000E0E6E000E0D6E0D5009240B6E0E508E
:106896000A200C6E0BC0F6FF0CC0F7FF0800F5507F
:1068A6000009D8A459EF34F05BEF34F05DEF34F013
:1068B60094EF34F00D5009240B6E0E500A200C6E26
:1068C6000BC0F6FF0CC0F7FF0800F5500A0AD8A463
:1068D6006FEF34F071EF34F076EF34F0C00E04EC65
:1068E60034F084EF34F00D5009240B6E0E500A205C
:1068F6000C6E0BC0F6FF0CC0F7FF0800F5509DECC0
:1069060032F00D4A0E2A0EBE92EF34F00E5009E117
:10691600200E0D5CD8A092EF34F094EF34F047EFE0
:1069260034F012005CEC32F0070E106ED00E0F6ED3
:106936008AEC32F0C8EC33F040EC32F0C7EC32F0BF
:10694600A6EC3DF0010E04EC34F0230E096E7F0E2A
:106956000A6E43EC34F0000E1B6E000E1A6E1A4AD5
:106966001B2A1BBEC0EF34F0300E1A5C750E1B5886
:10697600D8A0C0EF34F0C2EF34F0B2EF34F0010E1D
:1069860004EC34F05E0E096E7F0E0A6E43EC34F0B2
:10699600000E1B6E000E1A6E1A4A1B2A1BBEDDEF76
:1069A60034F0300E1A5C750E1B58D8A0DDEF34F0AB
:1069B600DFEF34F0CFEF34F0010E04EC34F02BECC3
:1069C6003CF0E2EF34F000EF00F0000E0E6E0ABE6F
:1069D600F1EF34F0EFEF34F0F7EF34F0096C0A1E04
:1069E600D8B00A2A010E0E6E0CBEFEEF34F0FCEF94
:1069F60034F002EF35F00B6C0C1ED8B00C2A0B509D
:106A06000C10D8B409EF35F00BEF35F02FEF35F059
:106A1600010E0D6E13EF35F0D8900B360C360D2A9D
:106A26000CAE18EF35F01AEF35F00FEF35F00B50CE
:106A3600095C0C500A58D8A023EF35F025EF35F045
:106A460029EF35F00B50095E0C500A5AD8900C32DB
:106A56000B320D2E1AEF35F00E50D8B435EF35F057
:106A660037EF35F03BEF35F0096C0A1ED8B00A2A2D
:106A760009C009F00AC00AF01200000E066E04BE34
:106A860049EF35F047EF35F04FEF35F0036C041E54
:106A9600D8B0042A010E066E02BE56EF35F054EF4A
:106AA60035F05CEF35F0016C021ED8B0022A010EFB
:106AB600061A000E086E000E076E03500410D8B4B6
:106AC60067EF35F069EF35F091EF35F0010E056EA1
:106AD60071EF35F0D89003360436052A04AE76EF0A
:106AE60035F078EF35F06DEF35F0D890073608368B
:106AF6000350015C04500258D8A084EF35F086EFAD
:106B060035F08BEF35F00350015E0450025A0780D2
:106B1600D89004320332052E78EF35F00650D8B4FB
:106B260097EF35F099EF35F09DEF35F0076C081EBD
:106B3600D8B0082A07C001F008C002F01200000E03
:106B46000A6E08BEABEF35F0A9EF35F0B5EF35F0BC
:106B5600081E071E061E056C000E062207220822C6
:106B6600010E0A6E04BEBCEF35F0BAEF35F0C6EF83
:106B760035F0041E031E021E016C000E02220322C3
:106B86000422010E0A1A000E0B6E000E0C6E000E89
:106B96000D6E000E0E6E0550061007100810D8B4C4
:106BA600D7EF35F0D9EF35F00FEF36F0010E096E5D
:106BB600E3EF35F0D8900536063607360836092A4B
:106BC60008AEE8EF35F0EAEF35F0DDEF35F0D890B6
:106BD6000B360C360D360E360550015C0650025843
:106BE6000750035808500458D8A0FCEF35F0FEEFC4
:106BF60035F007EF36F00550015E0650025A075091
:106C0600035A0850045A0B80D890083207320632CD
:106C16000532092EEAEF35F00A50D8B415EF36F0F2
:106C260017EF36F01FEF36F00E1E0D1E0C1E0B6C06
:106C3600000E0C220D220E220BC001F00CC002F039
:106C46000DC003F00EC004F01200000E956E000E8B
:106C5600026E020E016E000E046E000E036E8FECC5
:106C660037F0000E026E030E016E000E046E000E6B
:106C7600036E8FEC37F0000E026E040E016E000EEE
:106C8600046E000E036E8FEC37F0000E026E050EDA
:106C9600016E000E046E000E036E8FEC37F0000ED0
:106CA600836EB2EF36F0CF0E3324F66EF76A7E0EA1
:106CB600F7220800F5CF83FF000E026E020E016E6A
:106CC600000E046E010E036E8FEC37F0010E346E6B
:106CD600CFEF36F0CF0E3224F66EF76A7E0EF7222D
:106CE6000800F5CF83FF000E026E030E016E000E44
:106CF600046E010E036E8FEC37F0020E346ECFEF8A
:106D060036F0CF0E3124F66EF76A7E0EF7220800B3
:106D1600F5CF83FF000E026E040E016E000E046EA8
:106D2600010E036E8FEC37F0030E346ECFEF36F0A4
:106D3600CF0E3024F66EF76A7E0EF7220800F5CFE6
:106D460083FF000E026E050E016E000E046E010E2C
:106D5600036E8FEC37F0000E346ECFEF36F0345002
:106D6600076E086A0850000AD8B4BCEF36F0AEEFDA
:106D760036F00750000AD8B456EF36F0010AD8B4F8
:106D86006DEF36F0030AD8B484EF36F0010AD8B4B2
:106D96009BEF36F0AEEF36F0120080CF06F0000E15
:106DA600806E0F0E9512000E0A6EF80E93160AC02C
:106DB60001F0010E026E012AE3EF36F0D89002369A
:106DC600012EE1EF36F002509312070E81120AC02F
:106DD60001F0010E026E012AF3EF36F0D89002366A
:106DE600012EF1EF36F00250FF0A8116000E086EF2
:106DF600000E076E074A082A08BE0BEF37F0085048
:106E060009E10A0E075CD8A00BEF37F00DEF37F05B
:106E1600FDEF36F0000E096E09C001F0010E026E9C
:106E2600012A18EF37F0D8900236012E16EF37F008
:106E3600025083140009D8A423EF37F025EF37F06A
:106E46003DEF37F00A50040DF3500924016E010E90
:106E5600026E000E036E012A34EF37F0D890023628
:106E66000336012E31EF37F0025028120350291253
:106E760057EF37F00A50040DF3500924016E010E46
:106E8600026E000E036E012A4CEF37F0D8900236E0
:106E96000336012E49EF37F0021C046E031C056E03
:106EA6000450281605502916092A030E09645EEFB8
:106EB60037F060EF37F00FEF37F00A2A020E0A6458
:106EC60067EF37F069EF37F0D8EF36F0285026181D
:106ED60007E129502718D8A473EF37F075EF37F07C
:106EE60078EF37F035067EEF37F00A0E356E28C09C
:106EF60026F029C027F03550D8A484EF37F086EF66
:106F060037F08AEF37F026C02AF027C02BF006C0EC
:106F160080FF000E956E120002BE9DEF37F0025004
:106F260007E1080E015CD8B09BEF37F09DEF37F014
:106F3600C7EF37F003500410D8B4A4EF37F0A6EF2C
:106F460037F0B6EF37F001C005F0010E066E052AE0
:106F5600AFEF37F0D8900636052EADEF37F0065076
:106F66008012B5EF38F001C005F0010E066E052A55
:106F7600BFEF37F0D8900636052EBDEF37F0065036
:106F8600FF0A8016B5EF38F002BED5EF37F0025093
:106F960007E1100E015CD8B0D3EF37F0D5EF37F02C
:106FA60003EF38F0F80E0126FF0E022203500410FC
:106FB600D8B4E0EF37F0E2EF37F0F2EF37F001C088
:106FC60005F0010E066E052AEBEF37F0D89006366F
:106FD600052EE9EF37F006508112B5EF38F001C003
:106FE60005F0010E066E052AFBEF37F0D89006363F
:106FF600052EF9EF37F00650FF0A8116B5EF38F087
:1070060002BE11EF38F0025007E1180E015CD8B04D
:107016000FEF38F011EF38F03FEF38F0F00E0126A1
:10702600FF0E022203500410D8B41CEF38F01EEFF6
:1070360038F02EEF38F001C005F0010E066E052A75
:1070460027EF38F0D8900636052E25EF38F0065093
:107056008212B5EF38F001C005F0010E066E052A62
:1070660037EF38F0D8900636052E35EF38F0065053
:10707600FF0A8216B5EF38F002BE4DEF38F0025027
:1070860007E1200E015CD8B04BEF38F04DEF38F039
:107096007BEF38F0E80E0126FF0E022203500410A3
:1070A600D8B458EF38F05AEF38F06AEF38F001C02C
:1070B60005F0010E066E052A63EF38F0D890063605
:1070C600052E61EF38F006508312B5EF38F001C097
:1070D60005F0010E066E052A73EF38F0D8900636D5
:1070E600052E71EF38F00650FF0A8316B5EF38F01B
:1070F60002BE89EF38F0025007E1280E015CD8B0D5
:1071060087EF38F089EF38F0B5EF38F0E00E01265A
:10711600FF0E022203500410D8B494EF38F096EF15
:1071260038F0A6EF38F001C005F0010E066E052A0C
:107136009FEF38F0D8900636052E9DEF38F00650B2
:107146008412B5EF38F001C005F0010E066E052A6F
:10715600AFEF38F0D8900636052EADEF38F0065072
:10716600FF0A84161200FF0E106EFE0E0F6ED0EC94
:1071760036F028EC36F0000E0E6E000E0D6E0D4A3F
:107186000E2A0EBED0EF38F00E5009E1640E0D5CEB
:10719600D8A0D0EF38F0D2EF38F0C2EF38F03BECA1
:1071A60032F00B50011809E10C500218D8B4DEEF8A
:1071B60038F0E0EF38F0CEEF39F03BEC32F001C0BA
:1071C6000BF002C00CF03BEC32F001B6EDEF38F0FC
:1071D600EFEF38F040EF39F03BEC32F001B4F6EF68
:1071E60038F0F8EF38F040EF39F03BEC32F001B20E
:1071F600FFEF38F001EF39F040EF39F03BEC32F0B9
:1072060001B808EF39F00AEF39F040EF39F03BECFE
:1072160032F001BA11EF39F013EF39F040EF39F0DF
:107226003BEC32F001BC1AEF39F01CEF39F040EFBD
:1072360039F03BEC32F001BE23EF39F025EF39F09F
:1072460040EF39F03BEC32F002B22CEF39F02EEF82
:1072560039F040EF39F03BEC32F002B435EF39F05B
:1072660037EF39F040EF39F03BEC32F002A63EEF53
:1072760039F040EF39F042EF39F00F4A102A3BEC73
:1072860032F001A649EF39F04BEF39F050EF39F003
:107296000FC001F0010EF2EC32F03BEC32F001A42B
:1072A60057EF39F059EF39F05EEF39F00FC001F0C2
:1072B600040EF2EC32F03BEC32F001A265EF39F04D
:1072C60067EF39F06CEF39F00FC001F0070EF2EC02
:1072D60032F03BEC32F001A873EF39F075EF39F07C
:1072E6007AEF39F00FC001F0000EF2EC32F03BEC11
:1072F60032F001AA81EF39F083EF39F088EF39F0E7
:107306000FC001F0080EF2EC32F03BEC32F001ACAB
:107316008FEF39F091EF39F096EF39F00FC001F0A9
:10732600050EF2EC32F03BEC32F001AE9DEF39F097
:107336009FEF39F0A4EF39F00FC001F0020EF2EC26
:1073460032F03BEC32F002A2ABEF39F0ADEF39F0A0
:10735600B2EF39F00FC001F0090EF2EC32F03BEC5F
:1073660032F002A4B9EF39F0BBEF39F0C0EF39F0D3
:107376000FC001F0060EF2EC32F03BEC32F002A642
:10738600C7EF39F0C9EF39F0CEEF39F00FC001F091
:10739600030EF2EC32F010BEDAEF39F0105009E1CC
:1073A600030E0F5CD8A0DAEF39F0DCEF39F0BAEF54
:1073B60038F01200FF0E106EFE0E0F6ED0EC36F097
:1073C60028EC36F0000E0E6E000E0D6E0D4A0E2ADB
:1073D6000EBEF7EF39F00E5009E1640E0D5CD8A031
:1073E600F7EF39F0F9EF39F0E9EF39F03BEC32F02D
:1073F6000B50011809E10C500218D8B405EF3AF009
:1074060007EF3AF0F5EF3AF03BEC32F001C00BF043
:1074160002C00CF03BEC32F001B614EF3AF016EF76
:107426003AF067EF3AF03BEC32F001B41DEF3AF078
:107436001FEF3AF067EF3AF03BEC32F001B226EF7D
:107446003AF028EF3AF067EF3AF03BEC32F001B849
:107456002FEF3AF031EF3AF067EF3AF03BEC32F0CB
:1074660001BA38EF3AF03AEF3AF067EF3AF03BEC10
:1074760032F001BC41EF3AF043EF3AF067EF3AF0F1
:107486003BEC32F001BE4AEF3AF04CEF3AF067EFD0
:107496003AF03BEC32F002B253EF3AF055EF3AF0E5
:1074A60067EF3AF03BEC32F002B45CEF3AF05EEF95
:1074B6003AF067EF3AF03BEC32F002A665EF3AF0AD
:1074C60067EF3AF069EF3AF00F4A102A3BEC32F0D8
:1074D60001A670EF3AF072EF3AF077EF3AF00FC08C
:1074E60001F0010EF2EC32F03BEC32F001A47EEF3B
:1074F6003AF080EF3AF085EF3AF00FC001F0040E53
:10750600F2EC32F03BEC32F001A28CEF3AF08EEF67
:107516003AF093EF3AF00FC001F0070EF2EC32F0BA
:107526003BEC32F001A89AEF3AF09CEF3AF0A1EF6B
:107536003AF00FC001F0000EF2EC32F03BEC32F004
:1075460001AAA8EF3AF0AAEF3AF0AFEF3AF00FC06F
:1075560001F0080EF2EC32F03BEC32F001ACB6EF83
:107566003AF0B8EF3AF0BDEF3AF00FC001F0050E71
:10757600F2EC32F03BEC32F001AEC4EF3AF0C6EF7B
:107586003AF0CBEF3AF00FC001F0020EF2EC32F017
:107596003BEC32F002A2D2EF3AF0D4EF3AF0D9EF58
:1075A6003AF00FC001F0090EF2EC32F03BEC32F08B
:1075B60002A4E0EF3AF0E2EF3AF0E7EF3AF00FC05C
:1075C60001F0060EF2EC32F03BEC32F002A6EEEFE2
:1075D6003AF0F0EF3AF0F5EF3AF00FC001F0030E93
:1075E600F2EC32F010BE01EF3BF0105009E1030E51
:1075F6000F5CD8A001EF3BF003EF3BF0E1EF39F071
:10760600120002BE12EF3BF0025007E1080E015CC9
:10761600D8B010EF3BF012EF3BF03CEF3BF00350DD
:107626000410D8B419EF3BF01BEF3BF02BEF3BF007
:1076360001C005F0010E066E052A24EF3BF0D89036
:107646000636052E22EF3BF0065092122AEF3CF04A
:1076560001C005F0010E066E052A34EF3BF0D89006
:107666000636052E32EF3BF00650FF0A92162AEF39
:107676003CF002BE4AEF3BF0025007E1100E015CFF
:10768600D8B048EF3BF04AEF3BF078EF3BF00350C1
:107696000410D8B451EF3BF053EF3BF065EF3BF0ED
:1076A60001C005F0F80E0526010E066E052A5EEFEE
:1076B6003BF0D8900636052E5CEF3BF00650931251
:1076C6002AEF3CF001C005F0F80E0526010E066E05
:1076D600052A70EF3BF0D8900636052E6EEF3BF08C
:1076E6000650FF0A93162AEF3CF002BE86EF3BF0E7
:1076F600025007E1180E015CD8B084EF3BF086EF2C
:107706003BF0B4EF3BF003500410D8B48DEF3BF0E0
:107716008FEF3BF0A1EF3BF001C005F0F00E052620
:10772600010E066E052A9AEF3BF0D8900636052E16
:1077360098EF3BF0065094122AEF3CF001C005F09A
:10774600F00E0526010E066E052AACEF3BF0D8902A
:107756000636052EAAEF3BF00650FF0A94162AEFCE
:107766003CF002BEC2EF3BF0025007E1200E015C86
:10777600D8B0C0EF3BF0C2EF3BF0F0EF3BF0035068
:107786000410D8B4C9EF3BF0CBEF3BF0DDEF3BF094
:1077960001C005F0E80E0526010E066E052AD6EF95
:1077A6003BF0D8900636052ED4EF3BF006509512E6
:1077B6002AEF3CF001C005F0E80E0526010E066E24
:1077C600052AE8EF3BF0D8900636052EE6EF3BF0AB
:1077D6000650FF0A95162AEF3CF002BEFEEF3BF07C
:1077E600025007E1280E015CD8B0FCEF3BF0FEEF3B
:1077F6003BF02AEF3CF003500410D8B405EF3CF000
:1078060007EF3CF019EF3CF001C005F0E00E05264D
:10781600010E066E052A12EF3CF0D8900636052EAC
:1078260010EF3CF0065096122AEF3CF001C005F02E
:10783600E00E0526010E066E052A24EF3CF0D890D0
:107846000636052E22EF3CF00650FF0A9616120069
:10785600000E016E000EF2EC32F0010E016E000E0B
:10786600F2EC32F0020E016E000EF2EC32F0030E74
:10787600016E000EF2EC32F0010E04EC34F0CA0E8A
:10788600096E7F0E0A6E43EC34F0B6EC38F0000E4B
:10789600196E000E186ED8901834D96E1934DA6E37
:1078A6001C0ED926000EDA22DF50136E010E146E5E
:1078B600000E156E132A63EF3CF0D8901436153679
:1078C600132E60EF3CF03BEC32F0145001161550CD
:1078D600021601500210D8B473EF3CF075EF3CF07D
:1078E60095EF3DF02E4A2F2A010E04EC34F0B10E2E
:1078F600096E7F0E0A6E43EC34F0320E1EEC33F046
:10790600000E176E000E166E164A172A17BE95EF52
:107916003CF0300E165C750E1758D8A095EF3CF06B
:1079260097EF3CF087EF3CF0000E1EEC33F0010EB3
:1079360004EC34F0000E016E000EF2EC32F0010E93
:10794600016E000EF2EC32F0020E016E000EF2EC49
:1079560032F0030E016E000EF2EC32F0DF0E096E0D
:107966007E0E0A6E43EC34F0000E016E000EF2EC51
:1079760032F0010E016E000EF2EC32F0020E016ED4
:10798600000EF2EC32F0030E016E000EF2EC32F055
:107996003BEC32F002A0D2EF3CF0D4EF3CF067EFC4
:1079A6003DF0010E04EC34F0410E096E7F0E0A6EB6
:1079B60043EC34F0DDEC39F0000E196E000E186E53
:1079C600D8901834D96E1934DA6E1C0ED926000EEA
:1079D600DA22DF50136E010E146E000E156E132A96
:1079E600F8EF3CF0D89014361536132EF5EF3CF030
:1079F6003BEC32F0145001161550021601500210DD
:107A0600D8B408EF3DF00AEF3DF031EF3DF02C4AD7
:107A16002D2A010E04EC34F0E00E096E7F0E0A6E7C
:107A260043EC34F0320E1EEC33F0000E196E000EED
:107A3600186E184A192A19BE2AEF3DF0300E185C46
:107A4600750E1958D8A02AEF3DF02CEF3DF01CEF2B
:107A56003DF0000E1EEC33F0A5EF3DF0010E04ECF8
:107A660034F0960E096E7F0E0A6E43EC34F0000E6B
:107A7600196E000E186E184A192A19BE4CEF3DF001
:107A8600300E185C750E1958D8A04CEF3DF04EEF2D
:107A96003DF03EEF3DF0010E04EC34F07B0E096E36
:107AA6007F0E0A6E43EC34F0184A192A19BE65EFA8
:107AB6003DF0195009E1040E185CD8A065EF3DF0C1
:107AC60067EF3DF0E3EF3CF03BEC32F001A06EEFE8
:107AD6003DF070EF3DF091EF3DF0010E04EC34F017
:107AE600800E04EC34F0F30E096E7F0E0A6E43EC42
:107AF60034F02EC00FF02FC010F054EC33F0C00E4F
:107B060004EC34F0F60E096E7F0E0A6E43EC34F088
:107B16002CC00FF02DC010F054EC33F0D0EC36F042
:107B2600B7EF3CF0184A192A19BEA3EF3DF01950D9
:107B360009E1040E185CD8A0A3EF3DF0A5EF3DF0D7
:107B46004EEF3CF0120013681468000E016E000E32
:107B5600F2EC32F0010E016E000EF2EC32F0020E83
:107B6600016E000EF2EC32F0030E016E000EF2EC26
:107B760032F0030E096E7F0E0A6E43EC34F0D0EC41
:107B860036F028EC36F0000E126E000E116E114A19
:107B9600122A12BED8EF3DF0125009E1640E115CB4
:107BA600D8A0D8EF3DF0DAEF3DF0CAEF3DF03BEC60
:107BB60032F00F50011809E110500218D8B4E6EF60
:107BC6003DF0E8EF3DF058EF3FF03BEC32F001C0FE
:107BD6000FF002C010F03BEC32F001B6F5EF3DF0CD
:107BE600F7EF3DF048EF3EF03BEC32F001B4FEEF2C
:107BF6003DF000EF3EF048EF3EF03BEC32F001B2D4
:107C060007EF3EF009EF3EF048EF3EF03BEC32F076
:107C160001B810EF3EF012EF3EF048EF3EF03BECBD
:107C260032F001BA19EF3EF01BEF3EF048EF3EF09E
:107C36003BEC32F001BC22EF3EF024EF3EF048EF81
:107C46003EF03BEC32F001BE2BEF3EF02DEF3EF066
:107C560048EF3EF03BEC32F002B234EF3EF036EF46
:107C66003EF048EF3EF03BEC32F002B43DEF3EF022
:107C76003FEF3EF048EF3EF03BEC32F002A646EF17
:107C86003EF048EF3EF04AEF3EF0134A142A3BEC32
:107C960032F001A651EF3EF053EF3EF065EF3EF0B5
:107CA60013C001F0010EF2EC32F0D8901334D96E05
:107CB6001434DA6E1C0ED926000EDA22030EDE6E9E
:107CC600000EDD6E3BEC32F001A46CEF3EF06EEF81
:107CD6003EF080EF3EF013C001F0040EF2EC32F0FD
:107CE600D8901334D96E1434DA6E1C0ED926000ED1
:107CF600DA22020EDE6E000EDD6E3BEC32F001A2E1
:107D060087EF3EF089EF3EF09BEF3EF013C001F0A7
:107D1600070EF2EC32F0D8901334D96E1434DA6EC2
:107D26001C0ED926000EDA22010EDE6E000EDD6E66
:107D36003BEC32F001A8A2EF3EF0A4EF3EF0B6EF26
:107D46003EF013C001F0000EF2EC32F0D89013347E
:107D5600D96E1434DA6E1C0ED926000EDA22040E01
:107D6600DE6E000EDD6E3BEC32F001AABDEF3EF09A
:107D7600BFEF3EF0D1EF3EF013C001F0080EF2EC7B
:107D860032F0D8901334D96E1434DA6E1C0ED9261C
:107D9600000EDA22050EDE6E000EDD6E3BEC32F0D2
:107DA60001ACD8EF3EF0DAEF3EF0ECEF3EF013C058
:107DB60001F0050EF2EC32F0D8901334D96E14347B
:107DC600DA6E1C0ED926000EDA22060EDE6E000EC4
:107DD600DD6E3BEC32F001AEF3EF3EF0F5EF3EF038
:107DE60007EF3FF013C001F0020EF2EC32F0D8902C
:107DF6001334D96E1434DA6E1C0ED926000EDA222C
:107E0600070EDE6E000EDD6E3BEC32F002A20EEFC8
:107E16003FF010EF3FF022EF3FF013C001F0090EE4
:107E2600F2EC32F0D8901334D96E1434DA6E1C0E9C
:107E3600D926000EDA22090EDE6E000EDD6E3BEC50
:107E460032F002A429EF3FF02BEF3FF03DEF3FF079
:107E560013C001F0060EF2EC32F0D8901334D96E4E
:107E66001434DA6E1C0ED926000EDA220A0EDE6EE5
:107E7600000EDD6E3BEC32F002A644EF3FF046EF1B
:107E86003FF058EF3FF013C001F0030EF2EC32F072
:107E9600D8901334D96E1434DA6E1C0ED926000E1F
:107EA600DA220B0EDE6E000EDD6E14BE64EF3FF0BE
:107EB600145009E1030E135CD8A064EF3FF066EF9F
:107EC6003FF0C2EF3DF01200003F065B4F666D7D4E
:107ED600077F6F777C395E7971232D545241564165
:107EE600520A2A2D56657220686973746F72696327
:107EF6006F2064652073656E686173200050726937
:107F06006D6569726F20706173736F200A20446516
:107F160066696E69722073656E68613A0041207306
:107F2600656E686120666F692073616C7661200AF0
:107F3600416775617264652E2E2E00496E666F72FA
:107F46006D6520612073656E6861207061726120C5
:107F56007472617661723A0041636573736F206271
:107F66006C6F71756561646F200A41677561726433
:107F7600652E2E2E00232D7472617661720A2A2DCB
:107F860056657220686973746F7269636F2020008A
:107F960054454E5445204E4F56414D454E54450A84
:107FA600416775617264652E2E2E00444553545206
:107FB6004156414441200A20416775617264652E2D
:107FC6002E2E200053656E686120706172612064F8
:107FD60065737472617661723A0054524156414437
:107FE600410A416775617264652E2E2E0044455321
:0A7FF600545241564144413A000044
:020000040020DA
:08000000FFFFFFFFFFFFFFFF00
:020000040030CA
:0E000000FF027100FF8380FF0FC00FE00F4072
:00000001FF
